:10000E00F2F3F5F5F6F7F8F9F9FAFAFBFBFCFCFC5E
:10001E00FDFDFDFDFEFEFEFEFEFEFEFF42C117B61D
:10002E00D0D1B621E18CD868E95B8FEE446BB4F485
:10003E002D4777A2B6DAFA1600000005000105007A
:10004E00010301020000010301010401010301018A
:10005E000001010700010201010101010700010178
:05006E00010101010287
:03000B0002010FE0
:0D010F00C28CB2EC85118C85128AD28C3224
:020073008F0AF2
:10007500E4F50BE50BC3950A5039E4F50FF50EF5DC
:100085000DF50CE47F407E1FFDFCAB0FAA0EA90DFC
:10009500A80CC31200FE5017E50F2401F50FE43537
:1000A5000EF50EE4350DF50DE4350CF50C80D40593
:0500B5000B80C0C28CAD
:0100BA002223
:0D011C0085118C85128AD28CAF1002007301
:1000BB00758901D2A9D2AFE4F509751001E5099054
:1000CB0000479375F007A4FFE509900046932F14A2
:1000DB00F50890000E93F511E50890002A93F512A0
:1000EB00E50990004893F51074032509F5091201F1
:0300FB001C80CA9C
:03000000020129D1
:0C012900787FE4F6D8FD7581120200BB5F
:1000FE00EB9FF5F0EA9E42F0E99D42F0E89C45F058
:01010E0022CE
:00000001FF
