:10000E00F2F3F5F5F6F7F8F9F9FAFAFBFBFCFCFC5E
:10001E00FDFDFDFDFEFEFEFEFEFEFEFF42C117B61D
:10002E00D0D1B621E18CD868E95B8FEE446BB4F485
:10003E002D4777A2B6DAFA1606020305020103026D
:10004E000205020201030206020105020106020474
:10005E000302020502010602010502020302020169
:10006E00020106010105020103020102020402025D
:10007E000303020105020205020106020103020248
:10008E00020202010204050203030201020201013F
:10009E000201060101010201050106000000010036
:1000AE00030200030300030400030500030600031C
:1000BE000700030101030201030301030401030509
:1000CE0001030601030701030102030202030302F7
:1000DE0003040203050203060203070203010303DE
:1000EE0002030303030304030305030306030307C9
:0200FE000303FA
:03000B000201BC33
:0D01BC00C28CB29085118C85128AD28C32D3
:020100008F0A64
:10010200E4F50BE50BC3950A5039E4F50FF50EF54E
:100112000DF50CE47F887E13FDFCAB0FAA0EA90D32
:10012200A80CC31201AB5017E50F2401F50FE435FB
:100132000EF50EE4350DF50DE4350CF50C80D40505
:050142000B80C0C28C1F
:010147002295
:0D01C90085118C85128AD28CAF10020100C6
:10018B00D3EF9400EE6480948040147D6E7C00ED80
:0F019B001D70011CED4C70F7EF1F70E41E80E12A
:0101AA002232
:10014800758901D2A9D2AFE4F509751001E50990C6
:1001580000479375F007A4FFE509900046932F1414
:10016800F50890000E93F511E50890002A93F51212
:10017800E5099000AE93F51074032509F5091201FD
:03018800C980CA61
:030000000201D624
:0C01D600787FE4F6D8FD75811202014824
:1001AB00EB9FF5F0EA9E42F0E99D42F0E89C45F0AA
:0101BB002221
:00000001FF
