:1001D9003F065B4F666D7D077F6F80010204081043
:0301E90020408033
:0301FD00010AFFF5
:1001EC00D3EF9400EE94004007EF1F70F31E80F0E5
:0101FC0022E0
:04016E008E088F095F
:10017200E4FBE4F5A0E50945087003EB703BAE082B
:10018200AF097C007D0A120119AA057401A80308AF
:100192008002C333D8FCF590EA9001D993F5A0AE62
:1001A20008AF097C007D0A1201198E088F097F644D
:0901B2007E001201EC0BBB08B940
:0101BB002221
:10008F0075B0FFC2B420B005E4F50A801620B105A3
:10009F00750A01800E20B205750A02800620B3038F
:1000AF00750A0375B0FFC2B520B005750A04801636
:1000BF0020B105750A05800E20B205750A06800667
:1000CF0020B303750A0775B0FFC2B620B005750AD5
:1000DF0008801620B105750A09800E20B205750A31
:1000EF000A800620B303750A0B75B0FFC2B720B0A4
:1000FF0004750A0C2220B104750A0D2220B2047572
:0A010F000A0E2220B303750A0F2226
:1001BC0012008FE50AB4FF0C7590FF9001D9E493FF
:0D01CC00F5A080ECAF0A7E0012016E80E30A
:03000000020003F8
:0C000300787FE4F6D8FD75810A02004AFF
:10011900BC000BBE0029EF8DF084FFADF022E4CCCA
:10012900F875F008EF2FFFEE33FEEC33FCEE9DEC93
:10013900984005FCEE9DFE0FD5F0E9E4CEFD22EDD9
:10014900F8F5F0EE8420D21CFEADF075F008EF2F23
:10015900FFED33FD4007985006D5F0F222C398FD14
:050169000FD5F0EA22B1
:10000F000201BCE493A3F8E493A34003F68001F24A
:10001F0008DFF48029E493A3F85407240CC8C333F2
:10002F00C4540F4420C8834004F456800146F6DFC1
:10003F00E4800B01020408102040809001FDE47E53
:10004F00019360BCA3FF543F30E509541FFEE493B6
:10005F00A360010ECF54C025E060A840B8E493A37D
:10006F00FAE493A3F8E493A3C8C582C8CAC583CAA8
:10007F00F0A3C8C582C8CAC583CADFE9DEE780BE60
:0102000000FD
:00000001FF
