:10013A00C0F9A4B0999282F880908883C6A1868E6D
:1000E60075A8817588017F01120128D2EED2ECD263
:0600F600931200C980FB1B
:03000300020006F2
:0D000600C0E0C0F0C083C082C0D075D00043
:10001300751200C2AFE4FF30EE0CBF0305D2AF028E
:1000230000BE0FBF04F17F1412012820EEE720EE7B
:10003300077F0112012880F675100075110030EE5C
:10004300077F0112012880F620EE077F01120128A5
:1000530080F630EE127F011201280512E512C394D7
:100063001E40EFD2AF805474082510F8C000E6FF9D
:10007300C313D000F6E512C3940840097408251091
:10008300F8E64480F67512000511E511C3940840A3
:10009300AD0510E510C3940440A1E50BF4650A60B7
:1000A30004D2AF8016E50A540FF50DE50A54F0F5B6
:0B00B3000EC4540FF50E1200FCD2AF7B
:0B00BE00D0D0D082D083D0F0D0E03250
:1000C900E4FF7401A807088002C333D8FCF4F59053
:0C00D900E50B90013A93F5800FBF08E69C
:0100E50022F8
:1000FC00E4F5137F05120128B2EC0513E513C39444
:05010C006440F0D2EC9C
:0101110022CB
:10012800AD071FED600BE4FEEEC3940D50F20E8098
:01013800F7CF
:0101390022A3
:10011200AD071FED600FE4FEEEC3947850F20000CD
:0501220000000E80F357
:0101270022B5
:0300000002014AB0
:0C014A00787FE4F6D8FD7581130200E612
:00000001FF
