:10038A000412000186A00A087706B397C6D5F507B6
:02039A00F7D793
:10034B00D3EF9400EE6480948040147D6E7C00EDBE
:0F035B001D70011CED4C70F7EF1F70E41E80E168
:01036A002270
:10031100AB05AA048F828E837C007D081200038DB9
:10032100827C007D0AAF03AE02120003AA04AB0572
:10033100E4F580AF8204A807088002C333D8FCF437
:0A034100F59074082BF8E6F5802211
:10036B00AB07AA067590FF7580FFAF03AE021203B1
:0F037B004BE4F580F590AF03AE0212034B80E523
:10017200E4F516F51785151B85141A8513198512D2
:1001820018F51FF51EF51DF51CE47B0BFAF9F8AF07
:100192001FAE1EAD1DAC1C120075AA06A905A8044F
:1001A200C3E5159FF51BE5149AF51AE51399F519A0
:1001B200E51298F518E4FFFEFDFCAB1BAA1AA9197B
:1001C200A818D31201075010E4F51FF51EF51DF50E
:1001D2001C7FF47E0112036BE4F516F517E47B0A2B
:1001E200FAF9F8AF1BAE1AAD19AC181202CDAE0275
:1001F200AF03AD07AC06AF17AE16120311AF1BAEBD
:100202001AAD19AC18E47B0AFAF9F81202CD8F1B69
:100212008E1A8D198C180517E51770020516C394EE
:1002220008E516940040B6E51F2401F51FE4351ECB
:0F023200F51EE4351DF51DE4351CF51C02018B8E
:03000000020241B8
:0C024100787FE4F6D8FD75811F0202886A
:10000300C2D5EC30E709B2D5E4C39DFDE49CFCEE18
:1000130030E715B2D5E4C39FFFE49EFE12011DC372
:10002300E49DFDE49CFC800312011D30D507C3E46D
:060033009FFFE49EFE2287
:1000390075F008758200EF2FFFEE33FECD33CDCC7E
:1000490033CCC58233C5829BED9AEC99E582984001
:100059000CF582EE9BFEED9AFDEC99FC0FD5F0D6DE
:10006900E4CEFBE4CDFAE4CCF9A88222B800C1B908
:100079000059BA002DEC8BF084CFCECDFCE5F0CB46
:10008900F97818EF2FFFEE33FEED33FDEC33FCEB7F
:1000990033FB10D703994004EB99FB0FD8E5E4F93A
:1000A900FA227818EF2FFFEE33FEED33FDEC33FC27
:1000B900C933C910D7059BE99A4007EC9BFCE99A1B
:1000C900F90FD8E0E4C9FAE4CCFB2275F010EF2F60
:1000D900FFEE33FEED33FDCC33CCC833C810D70760
:1000E9009BEC9AE899400AED9BFDEC9AFCE899F89B
:0E00F9000FD5F0DAE4CDFBE4CCFAE4C8F9222E
:1002CD00C2D5E830E70FB2D5E4C39BFBE49AFAE45C
:1002DD0099F9E498F8EC30E717B2D5120303120040
:1002ED0075E4C39BFBE49AFAE499F9E498F880036A
:1002FD0012007530D50DE4C39FFFE49EFEE49DFD15
:04030D00E49CFC224E
:10010700EB9FF5F0EA9E42F0E99D42F0EC6480C86F
:0601170064809845F0220F
:10024D00020172E493A3F8E493A34003F68001F254
:10025D0008DFF48029E493A3F85407240CC8C333B2
:10026D00C4540F4420C8834004F456800146F6DF81
:10027D00E4800B010204081020408090038AE47E84
:10028D00019360BCA3FF543F30E509541FFEE49376
:10029D00A360010ECF54C025E060A840B8E493A33D
:1002AD00FAE493A3F8E493A3C8C582C8CAC583CA68
:1002BD00F0A3C8C582C8CAC583CADFE9DEE780BE20
:01039C000060
:10011D00BC000BBE0029EF8DF084FFADF022E4CCC6
:10012D00F875F008EF2FFFEE33FEEC33FCEE9DEC8F
:10013D00984005FCEE9DFE0FD5F0E9E4CEFD22EDD5
:10014D00F8F5F0EE8420D21CFEADF075F008EF2F1F
:10015D00FFED33FD4007985006D5F0F222C398FD10
:05016D000FD5F0EA22AD
:00000001FF
