:0D027A000B08505F38191791905D1011EFBF
:10024200AB05AA048F828E835382077583007C00DC
:100252007D0AAF03AE02120003AA04AB057580FF4C
:10026200AF827401A807088002C333D8FCF4F5906A
:0802720074082BF8E6F5802268
:10012600E4F513F517F516F515F514F51BF51AF59F
:1001360019F518E47B0AFAF9F8AF17AE16AD15AC47
:10014600141200948F1B8E1A8D198C18E4F513AFB8
:10015600137E00C006C007E47B0AFAF9F8AF1BAEAF
:100166001AAD19AC18120094AE02AF03AD07AC0677
:10017600D007D006120242AF1BAE1AAD19AC18E476
:100186007B0AFAF9F81200948F1B8E1A8D198C18B7
:100196000513E513C3940840B6E5172401F517E4E3
:1001A6003516F516E43515F515E43514F514808382
:030000000201B644
:0C01B600787FE4F6D8FD75811B0201FD86
:10000300BC000BBE0029EF8DF084FFADF022E4CCE1
:10001300F875F008EF2FFFEE33FEEC33FCEE9DECAA
:10002300984005FCEE9DFE0FD5F0E9E4CEFD22EDF0
:10003300F8F5F0EE8420D21CFEADF075F008EF2F3A
:10004300FFED33FD4007985006D5F0F222C398FD2B
:050053000FD5F0EA22C8
:1000580075F008758200EF2FFFEE33FECD33CDCC5F
:1000680033CCC58233C5829BED9AEC99E5829840E2
:100078000CF582EE9BFEED9AFDEC99FC0FD5F0D6BF
:10008800E4CEFBE4CDFAE4CCF9A88222B800C1B9E9
:100098000059BA002DEC8BF084CFCECDFCE5F0CB27
:1000A800F97818EF2FFFEE33FEED33FDEC33FCEB60
:1000B80033FB10D703994004EB99FB0FD8E5E4F91B
:1000C800FA227818EF2FFFEE33FEED33FDEC33FC08
:1000D800C933C910D7059BE99A4007EC9BFCE99AFC
:1000E800F90FD8E0E4C9FAE4CCFB2275F010EF2F41
:1000F800FFEE33FEED33FDCC33CCC833C810D70741
:100108009BEC9AE899400AED9BFDEC9AFCE899F87B
:0E0118000FD5F0DAE4CDFBE4CCFAE4C8F9220E
:1001C200020126E493A3F8E493A34003F68001F22C
:1001D20008DFF48029E493A3F85407240CC8C3333E
:1001E200C4540F4420C8834004F456800146F6DF0D
:1001F200E4800B010204081020408090027AE47E21
:10020200019360BCA3FF543F30E509541FFEE49301
:10021200A360010ECF54C025E060A840B8E493A3C8
:10022200FAE493A3F8E493A3C8C582C8CAC583CAF3
:10023200F0A3C8C582C8CAC583CADFE9DEE780BEAB
:010287000076
:00000001FF
