:0A00E80008080102040810204080FF
:1000B500AC06AD07D3ED9400EC6480948040147ACF
:1000C500007B6EEB1B70011AEB4A70F7ED1D70E4B7
:0300D5001C80E1AB
:0100D8002205
:10008F005307077E00E4F580AD0704A8050880023A
:10009F00C333D8FCF4F59074082FF8E6F4F5807F9D
:0600AF00F47E010200B521
:0F00D900E4F9E9FF7E0012008F09B908F580F104
:03000000020003F8
:0C000300787FE4F6D8FD75810F02004AFA
:10000F000200D9E493A3F8E493A34003F68001F22E
:10001F0008DFF48029E493A3F85407240CC8C333F2
:10002F00C4540F4420C8834004F456800146F6DFC1
:10003F00E4800B01020408102040809000E8E47E69
:10004F00019360BCA3FF543F30E509541FFEE493B6
:10005F00A360010ECF54C025E060A840B8E493A37D
:10006F00FAE493A3F8E493A3C8C582C8CAC583CAA8
:10007F00F0A3C8C582C8CAC583CADFE9DEE780BE60
:0100F200000D
:00000001FF
