:0801E000020C0000020A0000FD
:10013300D2AFD288D2A8D28AD2AA758902758C0688
:03014300758A06B4
:10014600750E00750F0AE50F150FAE0E7002150E2F
:100156004E70F3E50D450C60137580FED3E50B94E8
:1001660020E50A944E40D97580FC80D4E50B450AFB
:0E0176006009E4F50AF50BC28CC2A975807F02
:0201840080C039
:030003000201A453
:1001A400750C00750D01750A00750B00D2A9D28C6F
:0101B4003218
:03000B000201D31C
:0D01D300C0E0050BE50B7002050AD0E0321C
:03001300020016D2
:10001600C0E0C0F0C083C082C0D075D000C000C0B0
:1000260001C002C003C004C005C006C00720B35605
:100036007508007509001201C420B34A0509E509CF
:1000460070020508C3940AE5086480948040E7209E
:10005600B3341201C420B32E1201C430B32875087C
:10006600007509001201C430B31C0509E5097002C8
:100076000508C39404E5086480948040E730B3061D
:10008600750C00750D00D007D006D005D004D0033E
:10009600D002D001D000D0D0D082D083D0F0D0E032
:0100A6003227
:0E01B500E4FFFE0FBF00010EBE03F8BF20F5F1
:0101C3002219
:0E01C400E4FFFE0FBF00010EEF645A4E70F50F
:0101D200220A
:10018600D3EF9400EE940040147D6E7C00ED1D705C
:0D019600011CED4C70F7EF1F70E61E80E3BA
:0101A3002239
:030000000200A754
:0C00A700787FE4F6D8FD75810F0200EEB2
:1000B300020133E493A3F8E493A34003F68001F22F
:1000C30008DFF48029E493A3F85407240CC8C3334E
:1000D300C4540F4420C8834004F456800146F6DF1D
:1000E300E4800B01020408102040809001E0E47ECC
:1000F300019360BCA3FF543F30E509541FFEE49312
:10010300A360010ECF54C025E060A840B8E493A3D8
:10011300FAE493A3F8E493A3C8C582C8CAC583CA03
:10012300F0A3C8C582C8CAC583CADFE9DEE780BEBB
:0101E8000016
:00000001FF
