:1004B7004D6F6E005475650057656400546875008C
:1004C700467269005361740053756E00FF04B7FFED
:1004D70004BBFF04BFFF04C3FF04C7FF04CBFF0433
:0504E700CF20202000E1
:10040C00013C0D013901013F01013B01013D00019E
:10041C004000013E00013A1F013800013700012164
:10042C000009222020202020202020000B2B20201F
:0C043C002020202020202020000136007D
:100449001205471205151205D2C2951204EC8F3711
:10045900E537700280F5E537B4010EE538B40705D4
:10046900E4F538800B05388007E53860031201C3CD
:080479001204ECEF60D580F8DD
:1001C300E5376402600302027CE53814B40700409B
:1001D3000302032F9001E575F003A4C58325F0C541
:1001E30083730201FA02020A02021A02022A0202BB
:1001F3003A02025C02026CE53DB417047F008004FE
:10020300E53D04FF8F3D22E540B43B047F008004BD
:10021300E54004FF8F4022E53EB43B047F008004A9
:10022300E53E04FF8F3E22E53CB463047F00800477
:10023300E53C04FF8F3C22E539B40C047F018004C4
:10024300E53904FF8F39120481E53AC3953F500421
:10025300AF3A8002AF3F8F3F22E53AB53F047F01BB
:100263008004E53F04FF8F3F22E53BB406047F0093
:100273008004E53B04FF8F3B22E537640360030200
:10028300032FE53814B40700400302032F90029EA6
:1002930075F003A4C58325F0C583730202B302027C
:1002A300C20202D10202E00202EF020311020321A1
:1002B300E53D70047F178004E53D14FF8F3D22E583
:1002C3004070047F3B8004E54014FF8F4022E53EED
:1002D30070047F3B8004E53E14FF8F3E22E53C70B3
:1002E300047F638004E53C14FF8F3C22E539B401AD
:1002F300047F0C8004E53914FF8F39120481E53A39
:10030300C3953F5004AF3A8002AF3F8F3F22E53F92
:10031300B40104AF3A8004E53F14FF8F3F22E53B6D
:0D03230070047F068004E53B14FF8F3B2231
:1005D200758901758AB0758C3CD2A9D2AFD28C22B2
:10054700E4F5C875CD3C75CB3C75CCB075CAB0D257
:06055700ADD2AFD2CA22B2
:03000B0002002EC2
:10002E00C0E0C0F0C083C082C0D075D000C000C098
:0D003E0001C002C003C004C005C006C00719
:10004B00E53B75F003A424D3F582E43404F583E493
:10005B0093FB740193FA7402938B088A09F50A7562
:10006B008AB0758C3CE53D75F00A842430F522E5A9
:10007B003D75F00A84E5F02430F52375243AE5400C
:10008B0075F00A842430F525E54075F00A84E5F017
:10009B002430F52675273AE53E75F00A842430F5B1
:1000AB0028E53E75F00A84E5F02430F529752B32EE
:1000BB00752C30E53C75F00A842430F52DE53C7544
:1000CB00F00A84E5F02430F52E752F2DE53975F007
:1000DB000A842430F530E53975F00A84E5F02430D4
:1000EB00F53175322DE53F75F00A842430F533E593
:1000FB003F75F00A84E5F02430F5347405D395216F
:10010B00406AE53814B40700506290012375F00380
:10011B00A4C58325F0C58373020138020140020197
:10012B004802015002015E02016602016E75232036
:10013B007522208037752620752520802F75292064
:10014B007528208027752E20752D20752C20752B5A
:10015B00208019753120753020801175342075334E
:10016B002080097508FF750904750AE87B007A0081
:10017B007922E4FD7F0412055D7B007A00792B7DEB
:10018B0001E4FF12055DAB08AA09A90A7D017F0DE9
:0D019B0012055D0521E521B40A0375210060
:1001A800D007D006D005D004D003D002D001D000AB
:0B01B800D0D0D082D083D0F0D0E03255
:03002B000203BC11
:1003BC00C0E0C0F0C083C082C0D075D000C000C007
:0D03CC0001C002C003C004C005C006C00788
:1003D900C2CF0536E536B4140FE53EB43B05120627
:0803E900008002053E7536009C
:1003F100D007D006D005D004D003D002D001D00060
:0B040100D0D0D082D083D0F0D0E03209
:0E060000E4F53EE540B43B0302060E05402241
:0E060E00E4F540E53DB4170302000E053D2261
:10000E00E4F53DE53AB53F0512059D8002053F0535
:0B001E003BE53B75F0078485F03B22BA
:10059D00753F01E539B40C051205E28002053902FB
:0205AD000481C7
:10048100E53924FE601E14601724FE601324FE600B
:100491000F14600C24FE600824FE6004240B70120B
:1004A100753A1F22E53C54037004753A1D22753AD2
:0604B1001C22753A1E2218
:0F05E200753901E53CB46304E4F53C22053C2285
:10057300C292C290D291D2B7D29200A2B79201C2D4
:04058300922001F2CF
:010587002251
:1005C100120573C292C290C2918FB0D29200C292B0
:0105D1002207
:1005AF00AE07ED7005EE44808003EE44C0FF1205E8
:0205BF00C12257
:0F05F100120573D290C2918FB0D29200C29222A3
:10051500C2927F081205C11200037F381205C17F00
:09052500061205C17F0C0205C19C
:050003007F010205C1B0
:10055D001205AF12052EFF600C1205F1740129F979
:06056D00E43AFA80EE22E0
:1004EC00C2A020A60912058820A61B7F012220A5E8
:1004FC000912058820A50F7F022220A40912058865
:09050C0020A4037F03227F0022DA
:040588007FE87E0387
:10058C00D3EF9400EE94004007EF1F70F31E80F041
:01059C00223C
:03000000020330C8
:0C033000787FE4F6D8FD75814002037769
:10052E00BB010689828A83E0225002E722BBFE02CB
:09053E00E32289828A83E49322FE
:10033C00020449E493A3F8E493A34003F68001F28A
:10034C0008DFF48029E493A3F85407240CC8C333C2
:10035C00C4540F4420C8834004F456800146F6DF91
:10036C00E4800B010204081020408090040CE47E11
:10037C00019360BCA3FF543F30E509541FFEE49386
:10038C00A360010ECF54C025E060A840B8E493A34D
:10039C00FAE493A3F8E493A3C8C582C8CAC583CA78
:1003AC00F0A3C8C582C8CAC583CADFE9DEE780BE30
:0104480000B3
:00000001FF
