:08024D00021100000213000081
:1001C600D2AFD28AD2AAD288D2A8758902758C06F5
:1001D600758A06D2A920B21B7580FE7511007512AC
:1001E600017F887E13120204E512451160E7E4F5EB
:0E01F6008080F5E512451170DC75807F80D7A2
:03000B00020240AE
:0D024000C0E00514E51470020513D0E03293
:03001300020016D2
:10001600C0E0C0F0C083C082C0D075D000C000C0B0
:0D00260001C002C003C004C005C006C00731
:10003300C2AA750A0030B30512023180F830B30347
:100043000200E3120222750D00750E001202222037
:10005300B3030200E3750B00750C0030B310050CFD
:10006300E50C7002050BB42CF2E50BB401EDC3E50E
:100073000C942CE50B94015067750B00750C003044
:10008300B3FD120231AF0E74082FF8C000E6FEC3B1
:1000930013D000F630B32274082FF8E64480F6E458
:1000A300FFFE30B30B0FBF00010EEF64644E70F21E
:1000B300D3EF9463EE94005027050CE50C70020512
:1000C3000BC39408E50B940040B5050A050EE50E35
:1000D3007002050DC39402E50D9400500302004F16
:1000E300E50A64027034E509B4610E7511007512F6
:1000F3000075807FC28C750900E509B47102C28660
:10010300750B00750C00120222050CE50C7002053C
:0C0113000BC3942CE50B940140ECD2AA25
:10011F00D007D006D005D004D003D002D001D00034
:0B012F00D0D0D082D083D0F0D0E032DE
:0E022200E4FFFE0FBF00010EBE03F8BF20F583
:0102300022AB
:0E023100E4FFFE0FBF00010EEF645D4E70F59E
:01023F00229C
:10020400D3EF9400EE940040147D6E7C00ED1D70DD
:0D021400011CED4C70F7EF1F70E61E80E33B
:0102210022BA
:0300000002013AC0
:0C013A00787FE4F6D8FD75811402018185
:100146000201C6E493A3F8E493A34003F68001F208
:1001560008DFF48029E493A3F85407240CC8C333BA
:10016600C4540F4420C8834004F456800146F6DF89
:10017600E4800B010204081020408090024DE47ECA
:10018600019360BCA3FF543F30E509541FFEE4937E
:10019600A360010ECF54C025E060A840B8E493A345
:1001A600FAE493A3F8E493A3C8C582C8CAC583CA70
:1001B600F0A3C8C582C8CAC583CADFE9DEE780BE28
:0102550000A8
:00000001FF
