:0A01220008080102040810204080C4
:1000BB00D3EF9400EE6480948040147D6E7C00ED51
:0F00CB001D70011CED4C70F7EF1F70E41E80E1FB
:0100DA002203
:1000DB00D3EF9400EE6480948040147D0B7C00ED94
:0F00EB001D70011CED4C70F7EF1F70E41E80E1DB
:0100FA0022E3
:1000FB00E4FEC282EF339283EF25E0FFD2820EBE85
:05010B0008F0020110E4
:10011000C2847F0A7E001200DBD2847F0A7E000246
:0201200000DB02
:10008F00C2807FFF1200FB759001AF091200FB7F4A
:10009F001E7E001200BB7FFF1200FB759002AF0A9D
:0C00AF001200FB7F1E7E001200BB80D6FA
:03000000020003F8
:0C000300787FE4F6D8FD75810F02004AFA
:10000F0002008FE493A3F8E493A34003F68001F278
:10001F0008DFF48029E493A3F85407240CC8C333F2
:10002F00C4540F4420C8834004F456800146F6DFC1
:10003F00E4800B0102040810204080900122E47E2E
:10004F00019360BCA3FF543F30E509541FFEE493B6
:10005F00A360010ECF54C025E060A840B8E493A37D
:10006F00FAE493A3F8E493A3C8C582C8CAC583CAA8
:10007F00F0A3C8C582C8CAC583CADFE9DEE780BE60
:01012C0000D2
:00000001FF
