:0600F400010800010900F3
:0C000600D288D2A8C28AD2AAD2AF80FE53
:030003000200A256
:1000A200C0E0C0D075D000C000C007E5085407FF0B
:1000B2007401A807088002C333D8FCF4F580050850
:0900C200D007D000D0D0D0E0320C
:030013000200CB1D
:1000CB00C0E0C0D075D000C000C007E5095407FFE1
:1000DB007480A807088002C313D8FCF4F5900509B7
:0900EB00D007D000D0D0D0E032E3
:03000000020016E5
:0C001600787FE4F6D8FD75810902005DDA
:10002200020006E493A3F8E493A34003F68001F2EE
:1000320008DFF48029E493A3F85407240CC8C333DF
:10004200C4540F4420C8834004F456800146F6DFAE
:10005200E4800B01020408102040809000F4E47E4A
:10006200019360BCA3FF543F30E509541FFEE493A3
:10007200A360010ECF54C025E060A840B8E493A36A
:10008200FAE493A3F8E493A3C8C582C8CAC583CA95
:10009200F0A3C8C582C8CAC583CADFE9DEE780BE4D
:0100FA000005
:00000001FF
