:1017CC003E3E3E004920646F6E2774206B6E6F772F
:1017DC00005F0020006C696D697465642C706C6925
:0417EC0073203D0029
:10180E00045500000000112220202020202020203E
:09181E00202020202020202000C1
:0800030012179F12145980FB33
:1016AB00E4F50812000E7BFF7A1779CCE4FDAF0846
:1016BB001218597FF47E011217F00508E508C39440
:1016CB001040E0E4F50812000E7BFF7A1779CC7D11
:1016DB0001AF081218597FF47E011217F00508E5C7
:0616EB0008C3941040E06A
:0116F10022D6
:10179F001217701218CD121896D2B41218281218E8
:1017AF00C2E4F55AF533F55CF534F55BF553F521E5
:0D17BF00F554F558F557F556F555F55F2230
:10173600E4F561F562F563FDFF12188474352563DF
:10174600F8E6FF6426601FE553C394105002800D2F
:10175600E55325632426F8E6FF642660031218B5D0
:091766000563056180D68561343C
:01176F002257
:03000B0002137F5E
:10137F00C0E0C0F0C083C082C0D075D000C000C034
:10138F0001C002C003C004C005C006C007758C3C75
:10139F00758AB0055C0559E559C394965066E55EAC
:1013AF00600612000E755E00121736E55A601BE5D7
:1013BF0021700AFB7A0079227D01FF800A7BFF7A78
:1013CF001779D07D017F02121859E55C640F705FA9
:1013DF00F55CE55B70047F0180027F008F5BE53475
:1013EF00D3940F400375340FE55B700CE55A70080A
:1013FF007BFF7A1779DD80077BFF7A1779DFE4FDB2
:10140F00AF348028755E01E559B4A005755996056E
:10141F005DE55D540F7002056012000EE55D540F1F
:10142F00FFE5605401FD7BFF7A1779CC121859D074
:10143F0007D006D005D004D003D002D001D000D001
:0A144F00D0D082D083D0F0D0E0327C
:10189600758901758C3C758AB0D2A9D2AFD28C22DB
:0A18C2007F1078227420F608DFFC86
:0118CC0022F9
:080EA3008F678E668D658C647B
:100EAB00E4F56812037C8F6C8E6B8D6A8C69EC1287
:100EBB00033EA804A905AA06AB07AF67AE66AD65EE
:100ECB00AC641200198F708E6F8D6E8C6D7F007EEF
:100EDB00407D1C7C46AB70AA6FA96EA86D12010EEB
:100EEB0012037CAB07AA069000007C007D0A12045B
:100EFB007DD3ED9404EC648094804003900001AEAC
:100F0B0002AF037C007D0A12047DEF2582FFEE35D4
:100F1B0083AB07FA7C037DE8FE12047DED4C701C5D
:100F2B00EB4A6018E56C2401F56CE4356BF56BE46A
:100F3B00356AF56AE43569F569E4FAFBE55F701F1C
:100F4B00EB4A601BE4FAF9F8E56C2401F56CEA3521
:100F5B006BF56BE9356AF56AE83569F569E4FBEB26
:100F6B004A6039E568C39403502C7C007D0AAF03BB
:100F7B00AE0212047DED2430FFC3740F956824225A
:100F8B00F8A6077C007D0AAF03AE0212047DAA0609
:100F9B00AB07056880CD752E2E756804AF6CAE6BF4
:100FAB00AD6AAC69EC4D4E4F6042AF6CAE6BAD6A47
:100FBB00AC69EC4D4E4F6050E47B0AFAF9F812160F
:100FCB00F2EB2430FFC3740F95682422F8A607AF09
:100FDB006CAE6BAD6AAC69E47B0AFAF9F81216F2E7
:100FEB008F6C8E6B8D6A8C69056880BEE4FFFEFD8D
:100FFB00FCAB70AA6FA96EA86D1202B470057531A7
:0E100B00308003752C3005687B007A00792256
:0110190022B4
:030013000216468C
:10164600C0E0C0F0C083C082C0D075D000C000C06A
:1016560001C002C003C004C005C006C0077559001A
:10166600E55A7026120641E4FFFEFDFCAB58AA5768
:10167600A956A8551202B45003752101AF58AE57AA
:10168600AD56AC55120EA3755A01D007D006D0053B
:10169600D004D003D002D001D000D0D0D082D083E5
:0516A600D0F0D0E0329D
:100B6400E4F565F566C3E566941EE56564809480E6
:100B74004003020EA274782566F58274003565F58B
:100B840083E064246003020CA1E56624FFF568E5B4
:100B94006534FFF56774782568F58274003567F568
:100BA40083E0647E7003020EA2D3E5689400E567D7
:100BB400648094805003020EA2E56AAE697802C391
:100BC40033CE33CED8F92400F58274003EF583E0A9
:100BD400FCA3E0FDA3E0FEA3E0FF7B3D7A0A798756
:100BE400783F1202B4701DE56AAE697802C333CE51
:100BF40033CED8F92400F58274003EF5831204ED57
:100C040000000000E56AAE697802C333CE33CED863
:100C1400F92400F58274003EF583C083C082E0F8B5
:100C2400A3E0F9A3E0FAA3E0FBC000C001C002C046
:100C340003C3E5669568CFE5659567CF24FFFDEFAF
:100C440034FFFC1203438F728E718D708C6F7F00A2
:100C54007E007D207C41121268C004C005C006C01D
:100C64000774782568F58274003567F583E0FC1213
:100C74000348D003D002D001D00012010ED003D01B
:100C840002D001D00012001DD082D0831204E1E50D
:100C94006815686003020B991567020B997478252F
:100CA40066F58274003565F583E0FF642B6012EF0E
:100CB400642D600DEF642A6008EF642F6003020E58
:100CC40094E56624FFF568E56534FFF567747825D7
:100CD40068F58274003567F583E0647E7003020D65
:100CE400D2C3E567648094805003020DD2E56AAEF6
:100CF400697802C333CE33CED8F92400F582740068
:100D04003EF583E0FCA3E0FDA3E0FEA3E0FF7B3D12
:100D14007A0A7987783F1202B4701DE56AAE697861
:100D240002C333CE33CED8F92400F58274003EF5E5
:100D3400831204ED00000000E56AAE697802C33353
:100D4400CE33CED8F92400F58274003EF583C083F7
:100D5400C082E0F8A3E0F9A3E0FAA3E0FBC000C07E
:100D640001C002C003C3E5669568CFE5659567CF0A
:100D740024FFFDEF34FFFC1203438F728E718D70DC
:100D84008C6F7F007E007D207C41121268C004C0FD
:100D940005C006C00774782568F58274003567F5C8
:100DA40083E0FC120348D003D002D001D00012012A
:100DB4000ED003D002D001D00012001DD082D08307
:100DC4001204E1E568156870021567020CD1056A22
:100DD400E56A7002056974782566F58274003565E4
:100DE400F583E024D6605D24FD603224FE607C241B
:100DF400046003020E94E56AAE697802C333CE330D
:100E0400CED8F92400F58274003EF5831204ED3F38
:100E140086872B056AE56A707705698073E56AAE93
:100E2400697802C333CE33CED8F92400F582740036
:100E34003EF5831204ED3F86A7F0056AE56A70501B
:100E44000569804CE56AAE697802C333CE33CED8E7
:100E5400F92400F58274003EF5831204ED3F86C840
:100E6400B4056AE56A702905698025E56AAE697882
:100E740002C333CE33CED8F92400F58274003EF594
:100E8400831204ED3F86E979056AE56A7002056913
:0E0E94000566E5666003020B690565020B69E1
:010EA200222D
:10064100120B64E4F564AF64EF3395E0FEEF7802DA
:10065100C333CE33CED8F92400F58274003EF5833E
:10066100E0FCA3E0FDA3E0FEA3E0FF7B3D7A0A7975
:1006710087783F1202B4700302094CAF64EF3395DF
:10068100E0FEEF7802C333CE33CED8F92400F582F1
:1006910074003EF583E0FCA3E0FDA3E0FEA3E0FFD0
:1006A1007BB47AC87986783F1202B460030207D618
:1006B100AF64EF3395E0FEEF7802C333CE33CED88B
:1006C100F92404F58274003EF583E0FCA3E0FDA368
:1006D100E0FEA3E0FFC004C005C006C007AF64EFA1
:1006E1003395E0FEEF7802C333CE33CED8F924FC44
:1006F100F58274FF3EF583E0F8A3E0F9A3E0FAA3E5
:10070100E0FBD007D006D005D00412010EC004C012
:1007110005C006C007AF64EF3395E0FEEF7802C372
:1007210033CE33CED8F9FBAA062404F58274003AFD
:10073100F583D007D006D005D0041204E174FC2B58
:10074100F58274FF3AF5831204ED00000000E564C0
:1007510024FED3648094805003020941AF64EF33D7
:1007610095E0FEEF7802C333CE33CED8F924F8F505
:100771008274FF3EF583E0FCA3E0FDA3E0FEA3E06D
:10078100FF7BF07AA77986783F1202B460030209F1
:1007910041AF64EF3395E0FEEF7802C333CE33CE41
:1007A100D8F92404F58274003EF583E0FCA3E0FD52
:1007B100A3E0FEA3E0FF12032DC004C005C006C0E4
:1007C10007AF64EF3395E0FEEF7802C333CE33CE4B
:1007D100D8F902092DAF64EF3395E0FEEF7802C33B
:1007E10033CE33CED8F92400F58274003EF583E090
:1007F100FCA3E0FDA3E0FEA3E0FF7B797AE9798623
:10080100783F1202B46003020941755F01AF64EFE2
:100811003395E0FEEF7802C333CE33CED8F924040A
:10082100F58274003EF583E0F8A3E0F9A3E0FAA3B2
:10083100E0FBC000C001C002C003AF64EF3395E02C
:10084100FEEF7802C333CE33CED8F924FCF582749F
:10085100FF3EF583E0FCA3E0FDA3E0FEA3E0FFD0B3
:1008610003D002D001D000120217C004C005C00697
:10087100C007AF64EF3395E0FEEF7802C333CE33A8
:10088100CED8F9FBAA062404F58274003AF583D088
:1008910007D006D005D0041204E174FC2BF5827454
:1008A100FF3AF5831204ED00000000E56424FED355
:1008B100648094805003020941AF64EF3395E0FEF8
:1008C100EF7802C333CE33CED8F924F8F58274FF22
:1008D1003EF583E0FCA3E0FDA3E0FEA3E0FF7BF097
:1008E1007AA77986783F1202B47055AF64EF3395D9
:1008F100E0FEEF7802C333CE33CED8F92404F5827B
:1009010074003EF583E0FCA3E0FDA3E0FEA3E0FF5D
:1009110012032DC004C005C006C007AF64EF3395B4
:10092100E0FEEF7802C333CE33CED8F92404F5824A
:1009310074003EF583D007D006D005D0041204E13F
:100941000564E564641E6003020647E4F564AF6470
:10095100EF3395E0FEEF7802C333CE33CED8F924DE
:1009610000F58274003EF583E0FCA3E0FDA3E0FE08
:10097100A3E0FF7B3D7A0A7987783F1202B47003C6
:10098100020A10AF64EF3395E0FEEF7802C333CE75
:1009910033CED8F92400F58274003EF583E0FCA340
:1009A100E0FDA3E0FEA3E0FF7BF07AA77986783F24
:1009B1001202B47055AF64EF3395E0FEEF7802C3D5
:1009C10033CE33CED8F92404F58274003EF583E0AA
:1009D100FCA3E0FDA3E0FEA3E0FF12032DC004C0D1
:1009E10005C006C007AF64EF3395E0FEEF7802C3A0
:1009F10033CE33CED8F92404F58274003EF583D08A
:100A010007D006D005D0041204E1056402094FE4C1
:100A1100F564AF64EF3395E0FEEF7802C333CE3374
:100A2100CED8F92400F58274003EF583E0FCA3E002
:100A3100FDA3E0FEA3E0FF7B3D7A0A7987783F12B0
:100A410002B47003020B63AF64EF3395E0FEEF78FD
:100A510002C333CE33CED8F92400F58274003EF5BB
:100A610083E0FCA3E0FDA3E0FEA3E0FF7B2B7A87FC
:100A71007986783F1202B47003020B5EAF64EF33E4
:100A810095E0FEEF7802C333CE33CED8F92400F5DA
:100A91008274003EF583E0FCA3E0FDA3E0FEA3E049
:100AA100FF7BF07AA77986783F1202B47003020BBC
:100AB1005EAF64EF3395E0FEEF7802C333CE33CE01
:100AC100D8F92400F58274003EF583E0FCA3E0FD33
:100AD100A3E0FEA3E0FF7BB47AC87986783F1202D7
:100AE100B4607AAF64EF3395E0FEEF7802C333CEA2
:100AF10033CED8F92400F58274003EF583E0FCA3DF
:100B0100E0FDA3E0FEA3E0FF7B797AE97986783FF7
:100B11001202B46048AF58AE57AD56AC55C004C0D0
:100B210005C006C007AF64EF3395E0FEEF7802C35E
:100B310033CE33CED8F92400F58274003EF583E03C
:100B4100F8A3E0F9A3E0FAA3E0FBD007D006D005B3
:100B5100D00412001D8F588E578D568C5505640296
:020B61000A1375
:010B6300226F
:0718CD00D28AD2AAD2AF2299
:10177000E4FB74782BF582E43400F5837424F0EBF9
:1017800025E025E02400F582E43400F5831204ED21
:0E1790003F870A3D74352BF876260BBB1ED41E
:01179E002228
:10114F0075A0FFC2A320A40D30A4FDE554600302D7
:10115F0012497F072220A50D30A5FDE5546003023B
:10116F0012497F082220A614E55460030212493069
:10117F00A6FDE55460030212497F092220A70D3016
:10118F00A7FDE55460030212497F2F2275A0FFC20D
:10119F00A220A40D30A4FDE55460030212497F0480
:1011AF002220A50D30A5FDE55460030212497F05ED
:1011BF002220A60C30A6FDE5546002807D7F06221A
:1011CF0020A70C30A7FDE5546002806E7F2A2275A0
:1011DF00A0FFC2A120A40C30A4FDE5546002805AE8
:1011EF007F012220A50C30A5FDE5546002804B7FC6
:1011FF00022220A60C30A6FDE5546002803C7F033E
:10120F002220A70C30A7FDE5546002802D7F2D22F0
:10121F0075A0FFC2A020A40930A4FD12179F7F6301
:10122F002220A50C30A5FDE5546002800D7F002221
:10123F0020A61030A6FDE5546006E4F5547F0A227F
:10124F007F2B2220A71030A7FDE5546003E4F5544F
:09125F007554017F0A227F0A2266
:1014590075790A12114F8F797F327E001217F0E5E4
:1014690079640A700302151FE4F559E55E60030209
:10147900151FE5796463700302151FE55A600302BD
:10148900151FD3E5336480949D400D7BFF7A17794E
:10149900E17D01E4FF021859AF33EF3395E0FE74A3
:1014A900782FF58274003EF583E579F00533FFC3A3
:1014B9006480948A500474302FFF74352553F8A63C
:1014C900070553E579642B6012E579642D600CE515
:1014D90079642A6006E579642F703BAF33EF339561
:1014E900E0FE74762FF58274003EF583E0FFC36455
:1014F9008094804008D3EF6480948940037521016A
:10150900AF33EF3395E0FE74782FF58274003EF522
:0615190083747EF005332F
:01151F0022A9
:08184100C2B18E90D2B27F010A
:0F184900EF75F005A4FFEFD3940040031F80F765
:01185800226D
:1017F000D3EF9400EE940040147D6E7C00ED1D70DC
:0D180000011CED4C70F7EF1F70E61E80E339
:01180D0022B8
:10186F00C2B2C2B0D2B1D297121845A2979202C299
:04187F00B22002F29F
:011883002242
:0F18A600AE0712186FC2B2C2B0121841C2B222FE
:10188400AE07ED7005EE44808003EE44C0FF1218ED
:02189400A6228A
:0D18B500AE0712186FD2B0121841C2B22255
:10182800C2B27F081218A612000E7F381218A67FBF
:09183800061218A67F0C0218A686
:05000E007F010218A6AD
:10185900121884120464FF600C1218B5740129F976
:06186900E43AFA80EE22D1
:100016000203E8E86480F8E933E83360110460F02D
:10002600ED33EC337009E8FCE9FDEAFEEBFF220450
:1000360060DED3EB9FEA9EE99DE8C2E78CF0C2F74B
:1000460095F0400CE8CCF8E9CDF9EACEFAEBCFFB17
:100056001203B385D0F05804700320D5B3E80470BA
:10006600075002B2D50203F292D5EC0460F7E4CC55
:10007600C0E0C398F8603B94186008400DD0E0FBE0
:100086000203CAE4FBFAC9FC8028E830E406E4C9A6
:10009600FBE4CAFCE830E305E4C9CACBFCE8540734
:1000A6006010F8C3E913F9EA13FAEB13FBEC13FC3F
:1000B600D8F130F52FC3E49CFCEF9BFFEE9AFEEDE2
:1000C60099FDD0E0FBEF4E4D4C701222DB0302038C
:1000D600EFEC2CFCEF33FFEE33FEED33FDED30E7B6
:1000E600EB0203CAEF2BFFEE3AFEED39FDD0E0FB43
:1000F60050130BBB00030203F2ED13FDEE13FEEFEC
:0801060013FFEC13FC0203CA15
:10010E00EC4D6011E8497017ED33EC3304600DE4EB
:10011E00FCFFFEFD22E933E8330470F80203E81217
:10012E0003B358046009E4CC248150062850090218
:10013E0003F22840030203EFC0E0EB4A7044B9809B
:10014E0006D0E0FB0203DEEF4E701CBD8008EBFF15
:10015E00EAFEE9FD80EBE98DF0A4FEE5F00201F781
:10016E00E9CDF9EAFEEBFFEF89F0A4FCE5F0CE89CC
:10017E00F0A42EFFE435F0CD89F0A42DFEE435F089
:10018E008067EF4E7005BD80D780C3EF8BF0A4ACB7
:10019E00F0EE8BF0A42CFCE435F0F8EF8AF0A42CF2
:1001AE00E5F038FCE433CB8DF0A42CFCE5F03BF805
:1001BE00EE8AF0A42CFCE5F038F8E433CF89F0A4F5
:1001CE002CFCE5F038CF3400CE89F0A42FFFE5F0FB
:1001DE003EFEE433C98DF0A42EFEE5F039CD8AF053
:1001EE00A42FFFE5F03EFEE43DFD33D0E0FB5007CB
:1001FE000BBB000F0203F2EC2CFCEF33FFEE33FED1
:06020E00ED33FD0203CAFE
:100214000203F2EC5D046005E8590470030203E88C
:100224001203B3580460F6EC4860F2EC7004FDFE6F
:10023400FF22C860DB2481C85009C39860025006BD
:100244000203EF9850CAF582E9294B4A7005AB8244
:100254000203DE75F0007C1A7880C3EF9BEE9AED02
:1002640099400DC3EF9BFFEE9AFEED99FDE842F035
:10027400DC23ACF0D0E0FFD0E0FED0E0FDAB822088
:10028400E7101BEB60BAEC2CFCEF33FFEE33FEED12
:1002940033FD0203CAE803F830E705C0F075F00047
:1002A400EF2FFFEE33FEED33FD40B830E7C280AAF6
:1002B40074F8CC6480CCC86480C8F58204604FC3F1
:1002C400EB9FF5F0EA9E42F0E99D42F0E89C45F090
:1002D400603C501DE5825FFFE582D313CB5BCBF41A
:1002E4002B5582FB50280ABA002409B90020088043
:1002F4001DE5825BFBE582D313CF5FCFF4C3132FDD
:100304005582FF50090EBE00050DBD00010CC3EB64
:100314009FF5F0EA9E42F0E99D42F0E89C45F060CA
:0903240007CC4820E701B3EC22EC
:10032D00ED33EC33600A047003BD8004ECB2E7FCDE
:01033D00229D
:10033E0075F020800E75F010800575F0087D007E3A
:10034E00007F003392D530D5031204B3EC33401046
:10035E00EF33FFEE33FEED33FDEC33FCD5F0ED2243
:0E036E00E5F0247EA2D513CC92E7CDCEFF227F
:10037C00EDD2E7CD33EC3392D524814006E4FFFE79
:10038C00FDFC22FCE4CFCECDCC24E0501174FF80D8
:10039C00EDC3CC13CCCD13CDCE13CECF13CF047075
:0703AC00F030D5DE0204B3BE
:101268008F6E8E6D8D6C8C6BE4FFFE7D807C3FAB4A
:101278006EAA6DA96CA86B1202B47009AF6EAE6D40
:10128800AD6CAC6B22AF6EAE6DAD6CAC6B1203FD8A
:10129800FBAF72AE71AD70AC6F1203FDFFBF0108FA
:1012A800E4FFFE7D807C3F22EF64046022EB64044F
:1012B800601DBB0127E4FFFEFDFCAB72AA71A9709B
:1012C800A86F1202B460084006E4FFFEFDFC227419
:1012D800FFF572F571F570F56F021376E4F573F5A5
:1012E80074FFFEFDFCAB6EAA6DA96CA86B1202B46C
:1012F800504BAF72AE71AD70AC6F12037C8E738FB2
:1013080074AC73AD74EC120343C8ECC8C9EDC9CA18
:10131800EECACBEFCBAF72AE71AD70AC6F120019E5
:10132800E4FBFAF9F81202B470A5AF6EAE6DAD6CBD
:10133800AC6B12032D8F6E8E6D8D6C8C6BAF6EAE99
:101348006DAD6CAC6B12104EAB72AA71A970A86F20
:1013580012010E1215588F728E718D708C6FE57494
:1013680030E00B12032D8F728E718D708C6FAF72FF
:07137800AE71AD70AC6F22F5
:1003B300E9D2E7C933E833F892D5EDD2E7CD33EC90
:0703C30033FC5002B2D52209
:1003CA00EC30E7100FBF000C0EBE00080DBD000494
:1003DA000BEB6014A2D5EB13FCED92E7FD2274FF40
:1003EA00FCFDFEFF22E480F8A2D574FF13FC7D8099
:0303FA00E480EFAD
:1003FD00ED33EC33601004700FED547F7005740213
:0A040D0092E0227404220422E4228B
:1015200033DA929E35B16011377FE5FE3921848927
:101530003AAEC3FF3C1D955B3D6358473E75FDF0D9
:101540003F3172183F800000C2D50203F20203E867
:10155000BD80FA50F30203EFED33EC330460F17B0E
:101560003B7AAA79B8783F12010EED33EC3392D56D
:10157000247B5011A2D570DB500BED448024045025
:1015800004A2D580CEEFFBEEFAEDF9ECF812037C65
:10159000EFF582F404FC12034812001DC08290157E
:1015A000207409120426ED33CC33D0F092D525F007
:0A15B000A2D57001C313CC13FD2275
:10101A003E9248DA3ECCCCCD3F2AAAAB4000000033
:10102A003F8000003F9837F03FB504F33FD744FCB8
:10103A003E3172173EB172173F0515913EDE5BD9FC
:10104A00D2018002C201EDD2E7F8CD33EC3304704D
:10105A000BBD800592D50203F20203E840FBD314CC
:10106A0060F2F5F07C3FEE7A00C39496C8948B4008
:10107A00230AC89469C8941A401A0AC89468C8947A
:10108A001F40110AC8945AC89425400805F07A00EE
:10109A00CDC2E7CDC0F08C758D768E778F78EA2336
:1010AA0023C0E0242AF582E43410F5831204D11215
:1010BA00001DECC0E0EDC0E0EEC0E0EFC0E01204BD
:1010CA00C1A875A976AA77AB78120019D0E0FBD02F
:1010DA00E0FAD0E0F9D0E0B2E7F81202178C758D89
:1010EA00768E778F7890101A7403120417A875A950
:1010FA0076AA77AB7812010ED0E0600F2436F5821B
:10110A00E43410F5831204D112001D8C758D768E8D
:10111A00778F78D0E0C3947FFDE49400FC120343F8
:10112A007B187A727931783F12010EA875A976AACE
:10113A0077AB7812001D30010B7BD97A5B79DE78A8
:05114A003E12010E221F
:10041700C0E0EFFBEEFAEDF9ECF812010ED0E0F5D3
:10042700F0EFFBEEFAEDF9ECF81204C1A3A3A3A3D6
:10043700E8C0E0E9C0E0EAC0E0EBC0E0C0F01201CC
:100447000E1204D1A3A3A3A312001DD0F0D0E0FB8A
:0D045700D0E0FAD0E0F9D0E0F8D5F0D422E2
:030000000215BA2C
:0C15BA00787FE4F6D8FD758179021601F7
:10046400BB010689828A83E0225002E722BBFE0296
:09047400E32289828A83E49322C9
:10047D00C2D5EC30E709B2D5E4C39DFDE49CFCEE9A
:10048D0030E715B2D5E4C39FFFE49EFE12051EC3EF
:10049D00E49DFDE49CFC800312051E30D507C3E4EA
:0604AD009FFFE49EFE2209
:1016F200C2D5E830E70FB2D5E4C39BFBE49AFAE423
:1017020099F9E498F8EC30E717B2D51217281205C8
:10171200AFE4C39BFBE49AFAE499F9E498F88003F6
:101722001205AF30D50DE4C39FFFE49EFEE49DFD9C
:04173200E49CFC2215
:0E04B300C3E49FFFE49EFEE49DFDE49CFC225A
:1004C100E493FC740193FD740293FE740393FF2281
:1004D100E493F8740193F9740293FA740393FB2281
:0C04E100ECF0A3EDF0A3EEF0A3EFF0228E
:1004ED00A8828583F0D083D08212050412050412F0
:1004FD000504120504E473E493A3C583C5F0C58315
:10050D00C8C582C8F0A3C583C5F0C583C8C582C858
:01051D0022BB
:1015C600020003E493A3F8E493A34003F68001F238
:1015D60008DFF48029E493A3F85407240CC8C33326
:1015E600C4540F4420C8834004F456800146F6DFF5
:1015F600E4800B010204081020408090180EE47E5F
:10160600019360BCA3FF543F30E509541FFEE493E9
:10161600A360010ECF54C025E060A840B8E493A3B0
:10162600FAE493A3F8E493A3C8C582C8CAC583CADB
:10163600F0A3C8C582C8CAC583CADFE9DEE780BE93
:0118270000C0
:10051E00BC000BBE0029EF8DF084FFADF022E4CCC1
:10052E00F875F008EF2FFFEE33FEEC33FCEE9DEC8A
:10053E00984005FCEE9DFE0FD5F0E9E4CEFD22EDD0
:10054E00F8F5F0EE8420D21CFEADF075F008EF2F1A
:10055E00FFED33FD4007985006D5F0F222C398FD0B
:05056E000FD5F0EA22A8
:1005730075F008758200EF2FFFEE33FECD33CDCC3F
:1005830033CCC58233C5829BED9AEC99E5829840C2
:100593000CF582EE9BFEED9AFDEC99FC0FD5F0D69F
:1005A300E4CEFBE4CDFAE4CCF9A88222B800C1B9C9
:1005B3000059BA002DEC8BF084CFCECDFCE5F0CB07
:1005C300F97818EF2FFFEE33FEED33FDEC33FCEB40
:1005D30033FB10D703994004EB99FB0FD8E5E4F9FB
:1005E300FA227818EF2FFFEE33FEED33FDEC33FCE8
:1005F300C933C910D7059BE99A4007EC9BFCE99ADC
:10060300F90FD8E0E4C9FAE4CCFB2275F010EF2F20
:10061300FFEE33FEED33FDCC33CCC833C810D70720
:100623009BEC9AE899400AED9BFDEC9AFCE899F85B
:0E0633000FD5F0DAE4CDFBE4CCFAE4C8F922EE
:00000001FF
