:0A08EB0020202020004552524F004B
:1007D70002130000011A03021D00000211000602A5
:1007E700200000020C0000020A00000215000001B0
:1007F7001C00012900010800011B0001270001104E
:100807000101090005222020202000031700000015
:0B08E00012047E12074212085C80FB2D
:10074200E4FFF513F514F50EF50F751A03F51DF513
:100752001EF520F521F50CF50DF50AF50B751001C6
:10076200F509F51C751FFFF529F528F508F51BF5A8
:100772002774222FF87620EF6403600674172FF88F
:0F078200E4F60FBF04EB12087D1208C402000E4C
:03000B0002081BCD
:10081B00C0E0C0F0C083C082C0D075D000C000C0A3
:10082B0001C002C003C004C005C006C007758CFE22
:10083B00758A0C120618D007D006D005D004D00349
:10084B00D002D001D000D0D0D082D083D0F0D0E075
:01085B00326A
:03001B0002079148
:10079100C0E0C0F0C083C082C0D075D000C000C02E
:1007A10001C002C003C004C005C006C007758DF8B2
:1007B100758B301201AE8F1F12001ED007D006D0EC
:1007C10005D004D003D002D001D000D0D0D082D047
:0607D10083D0F0D0E032FD
:10085C00051EE51E7002051D12089BBF0112AC118E
:10086C00AD12AE1DAF1E1203F3ED4C700312059FBB
:01087C002259
:10001E008F2EC3E52E648094805021E527701DE558
:10002E00097019E510700C7BFF7A0879EB120685C2
:10003E00751001AD21AC20AF1C0201A7752701C3BD
:10004E00E52E6480948050030200D8D3E52E6480A0
:10005E0094895076E4F51BC3E508648094834003CD
:10006E000201AD74172508F8A62ED3E50864809416
:10007E00804006E50814FF80027F0174172FF8E612
:10008E00FF3395E0FE7C007D0A1203E1AA06AB0762
:10009E00E508B4020524FEFF80027F0274172FF8D4
:1000AE00E6FF3395E0FE7C007D641203E1EF2BFF4B
:1000BE00EE3AFE74172508F8E6FD3395E0FCEF2DB9
:1000CE00F50BEE3CF50A05088074E52EB40E05120C
:1000DE000742806AE52EB40F10750901E4F51B1274
:1000EE0008F51208D4C28C8055E52EB40C0E751B83
:1000FE0001E4F508F517F518F5198042E52EB40A56
:10010E0007E4F51BF5288036E52EB40B08E4F51B45
:10011E007528018029E52EB40D24E4F51BF508F5AC
:10012E0017F518F519D3E50B94F0E50A6480948061
:10013E005009850A0C850B0D852829E4F527E51B4A
:10014E00B4010CE50970087BFF7A0879EB804DE568
:10015E0009704CE51B70480516E51670020515C3AF
:10016E009488E515648094934003E4F527E510B474
:10017E00010C7BFF7A0879EB120685E4F510D3E5C6
:10018E000B94F0E50A6480948040087BFF7A08792E
:10019E00F08009AD0BAC0AAF281206E512068522D7
:10059F00E521B50D0DE520B50C08E51CB529037F48
:1005AF00FF22E52145207008E50D450C7002800CF7
:1005BF00E5214520600FE50D450C70097590F0F5AC
:1005CF0020F521FF22E51CB52925C3E521950DE571
:1005DF000C6480F8E520648098500A0521E52170AD
:1005EF002505208021E5211521701B15208017E599
:1005FF001C65296011E521152170021520E52145A3
:09060F0020700385291C7F0122E3
:10089B00E521B50D0DE520B50C08E51CB529037F49
:0508AB0000227F012284
:10061800E521452060660514E51470020513AC2039
:10062800AD217E057FDC1203F38E0E8F0FAC0EAD6D
:100638000FAE13AF141203F3ED4C7040E51C7004B9
:10064800051A8007E51CB40102151AE51A24FE6094
:100658001714601914601B24037021C2B5D2B3E5C6
:100668001CB40118751A0522C2B4D2B222C2B3D280
:0D067800B522C2B2D2B4E51C7002F51A2200
:0908F5007590F0E4F520F52122D4
:0406E5008C2F8D3099
:1006E900E4FB7E0478227420F608DEFCEF700575C1
:1006F90022448003752243E530452F700575253066
:100709008030E530452F602AAE2FAF307C007D0A5E
:100719001203F3ED2430FFC374039B2422F8A607C8
:10072900AE2FAF307C007D0A1203F38E2F8F300B72
:0807390080D07B007A007922D8
:010741002295
:1008C400758911758CFE758A0CD2A9D2AFD28C228F
:0D000E00758DF8758B30D2ABD2AFD28E223B
:030817000131FFAD
:1001AE0075A0FFC2A020A70EE531F460037FFF22E9
:1001BE0075310E7F0E2220A60DE531F460037FFF10
:1001CE0022E4F531FF2220A50EE531F460037FFF16
:1001DE002275310F7F0F2220A40EE531F460037FCC
:1001EE00FF2275310D7F0D2275A0FFC2A120A70E33
:1001FE00E531F460037FFF227531077F072220A6C9
:10020E000EE531F460037FFF227531087F0822204E
:10021E00A50EE531F460037FFF227531097F0922B7
:10022E0020A40EE531F460037FFF2275310C7F0CA4
:10023E002275A0FFC2A220A70EE531F460037FFF56
:10024E00227531047F042220A60EE531F460037F6F
:10025E00FF227531057F052220A50EE531F46003DE
:10026E007FFF227531067F062220A40EE531F46051
:10027E00037FFF2275310B7F0B2275A0FFC2A320D7
:10028E00A70EE531F460037FFF227531017F012255
:10029E0020A60EE531F460037FFF227531027F0246
:1002AE002220A50EE531F460037FFF227531037F16
:1002BE00032220A40EE531F460037FFF2275310A7C
:0902CE007F0A227531FF7FFF2237
:1008B0002020202000505F38191791905D1011FA08
:0408C000D8D9F3FF91
:0C08D400E4F580D293D292D291D290220F
:1002D700E4FF1203C8FEB431069008B6020379EEB4
:1002E700B432069008B70203961203C8FEB433056A
:1002F7009008B8807DEEB434069008B902039612D0
:1003070003C8FEB435059008BA8067EEB436059089
:1003170008BB807B1203C8FEB437059008BC805227
:10032700EEB438059008BD80661203C8FEB43905DF
:100337009008BE803DEEB430059008B58051120399
:10034700C8FEB444059008BF8028EEB44305900862
:10035700C0803C1203C8FEB445059008C18013EE67
:10036700B452059008C280271203C8FEB4200E902D
:1003770008C3E493FD742A2FF8A6058033EEB4670B
:10038700059008C480091203C8B46F0E9008C5E42D
:1003970093FE742A2FF8A60680169008C1E493F5F9
:1003A7002AA3E493F52BF52C9008BFE493F52D22AF
:1003B700740129F9E43AFA0FEF640460030202D9E1
:0103C7002213
:100685001202D71208D4852A80C2937F0A7E00EF12
:100695001F70011EEF4E70F7D293E4F580852B8015
:1006A500C292FE7F0AEF1F70011EEF4E70F7D292C5
:1006B500E4F580852C80C291FE7F0AEF1F70011E34
:1006C500EF4E70F7D291E4F580852D80C290FE7FC4
:0F06D5000AEF1F70011EEF4E70F7D290E4F58010
:0106E40022F3
:10087D007FF47E01E5B060047D0180027D008DB0C6
:0D088D00E4F580EF1FAC0670011E4C70F604
:01089A00223B
:10047E00E4FFFEFDFC1208D49008C4E493F580C29C
:10048E00937C3A7D98ED1D70011CED4C70F7D29364
:10049E00E4F5809008C593F580C2927C3A7D98ED84
:1004AE001D70011CED4C70F7D292E4F5809008C5DA
:1004BE0093F580C2917C3A7D98ED1D70011CED4C38
:1004CE0070F7D291E4F5809008C693F580C2907CC7
:1004DE003A7D98ED1D70011CED4C70F7D290E4F54D
:1004EE00807C757D30ED1D70011CED4C70F70FBFDB
:1004FE0000010EEF64034E60030204867BFF7A0850
:05050E0079B002068532
:03000000020513E3
:0C051300787FE4F6D8FD75813102055AAE
:1003C800BB010689828A83E0225002E722BBFE0233
:0903D800E32289828A83E4932266
:1003E100EF8DF0A4A8F0CF8CF0A428CE8DF0A42E30
:0203F100FE22EA
:1003F300C2D5EC30E709B2D5E4C39DFDE49CFCEE25
:1004030030E715B2D5E4C39FFFE49EFE120429C36F
:10041300E49DFDE49CFC800312042930D507C3E46A
:060423009FFFE49EFE2293
:10051F000208E0E493A3F8E493A34003F68001F20A
:10052F0008DFF48029E493A3F85407240CC8C333DD
:10053F00C4540F4420C8834004F456800146F6DFAC
:10054F00E4800B01020408102040809007D7E47E5E
:10055F00019360BCA3FF543F30E509541FFEE493A1
:10056F00A360010ECF54C025E060A840B8E493A368
:10057F00FAE493A3F8E493A3C8C582C8CAC583CA93
:10058F00F0A3C8C582C8CAC583CADFE9DEE780BE4B
:01081A0000DD
:10042900BC000BBE0029EF8DF084FFADF022E4CCB7
:10043900F875F008EF2FFFEE33FEEC33FCEE9DEC80
:10044900984005FCEE9DFE0FD5F0E9E4CEFD22EDC6
:10045900F8F5F0EE8420D21CFEADF075F008EF2F10
:10046900FFED33FD4007985006D5F0F222C398FD01
:050479000FD5F0EA229E
:00000001FF
