:10017B00C6F4B6AFBFC6BCBCA3ACCEAAB0AEBAC3B6
:10018B00CCEEB6AFC1A6A3A10A0048656C6C6F207C
:08019B00576F726C64210A0029
:1000030075985075CAFF75CCFF75CBFF75CDFF751D
:06001300C834E4F5C92227
:1001A300758780759850758920758DFF758BFFD283
:0201B3008E229A
:0801C1008F993099FDC29922CB
:0801C9003098FDC298AF9922A5
:03002300020019BF
:09001900309805C29885998032E7
:10011C0078087C007D007BFF7A01797B7E007F1A5A
:10012C001200F678227C007D007BFF7A0179957EA7
:10013C00007F0E1200F6E4FE120003E4FD74082D9D
:10014C00F8E6FF1201C10DBD18F3E4FD74222DF881
:10015C00E6FF1201C10DBD0DF3EE2430FF1201C1FB
:0F016C000EEED394094001227F0A1201C180CC0C
:030000000201B545
:0C01B500787FE4F6D8FD75812F02011C54
:10002600E709F608DFFA8046E709F208DFFA803EBC
:1000360088828C83E709F0A3DFFA8032E309F608A9
:10004600DFFA8078E309F208DFFA807088828C8311
:10005600E309F0A3DFFA806489828A83E0A3F608C5
:10006600DFFA805889828A83E0A3F208DFFA804C9F
:1000760080D280FA80C680D4806980F28033801076
:1000860080A680EA809A80A880DA80E280CA8033DF
:1000960089828A83ECFAE493A3C8C582C8CCC58357
:1000A600CCF0A3C8C582C8CCC583CCDFE9DEE78027
:1000B6000D89828A83E493A3F608DFF9ECFAA9F0A6
:1000C600EDFB2289828A83ECFAE0A3C8C582C8CCFC
:1000D600C583CCF0A3C8C582C8CCC583CCDFEADE15
:1000E600E880DB89828A83E493A3F208DFF980CC77
:1000F60088F0EF60010E4E60C388F0ED2402B40470
:100106000050B9F582EB2402B4040050AF23234516
:06011600822390007673C5
:00000001FF
