:0D018D00120156D2AFD28AD2AAC28080FCE5
:03000B0002000EE2
:10000E00C0E0C0F0C083C082C0D075D000C000C0B8
:0D001E0001C002C003C004C005C006C00739
:10002B00C2AA750A0030B30512017E80F830B30303
:10003B000200E312016F750D00750E0012016F20A7
:10004B00B3030200E3750B00750C0030B310050C05
:10005B00E50C7002050BB42CF2E50BB401EDC3E516
:10006B000C942CE50B9401506F750B00750C003044
:10007B00B3FD12017EAF0E74082FF8C000E6FEC36D
:10008B0013D000F630B32A74082FF8E64480F675C7
:10009B000F0075100030B30E0510E5107002050F40
:1000AB006464450F70EFD3E5109463E50F94005033
:1000BB0027050CE50C7002050BC39408E50B9400A7
:1000CB0040AD050A050EE50E7002050DC39402E561
:1000DB000D94005003020047E50A64027032AF082A
:1000EB00120003AF09120003E509B46102C287E5F0
:1000FB0009B47102C286750B00750C0012016F05F5
:10010B000CE50C7002050BC3942CE50B940140EC31
:02011B00D2AA66
:10011D00D007D006D005D004D003D002D001D00036
:0B012D00D0D0D082D083D0F0D0E032E0
:080003008F993099FDC299228A
:10015600759850758921758840758DF3758BF37583
:090166008780C298C299D28E2252
:0E016F00E4FFFE0FBF00010EBE03F8BF20F537
:01017D00225F
:0E017E00E4FFFE0FBF00010EEF645D4E70F552
:01018C002250
:10013800D3EF9400EE940040147D6E7C00ED1D70AA
:0D014800011CED4C70F7EF1F70E61E80E308
:010155002287
:0300000002019A60
:0C019A00787FE4F6D8FD75811002018D1D
:00000001FF
