:100CB5006473313862323020696E697400636F6E17
:0A0CC500666967206F6B00090900E3
:0D0CF6000B09505F38191791905D1011EF38
:100CCF0074FFF5CBF5CDF5CAF5CCE4F5C975C8348D
:030CDF00759850B5
:010CE20022EF
:080D30003098FDC298AF992232
:03002300020D27A4
:090D2700309805C2988599083244
:080D38008F993099FDC2992248
:100CE300120026FF600C120D38740129F9E43AFA58
:030CF30080EE226E
:100C8E00EF75F00A84AFF05305077590FFE4F58019
:100C9E00AE0504A806088002C333D8FCF4F59074A0
:070CAE00092FF8E6F5802292
:080AB5008F2E8E2D8D2C8C2B51
:100ABD00E4F52FF5308026E4FFFEFDFCAB34AA33C0
:100ACD00A932A831D312010D401D0530AF34AE331C
:100ADD00AD32AC31E47B0AFAF9F812007B8F348E1B
:100AED00338D328C3180D0E52FC395305035E47B7A
:100AFD000AFAF9F8AF2EAE2DAD2CAC2B12007BAF50
:100B0D0003AD2F120C8EAF2EAE2DAD2CAC2BE47B86
:100B1D000AFAF9F812007B8F2E8E2D8D2C8C2B0559
:030B2D002F80C452
:010B300022A2
:100B94007532EA753360C2B77F5A120D1DD2B77F22
:100BA4000B120D1D30B715D3E5339400E5329400D4
:100BB400400AE533153370EC153280E8A2B7920091
:050BC40030B7FDA200A6
:010BC9002209
:020C60008F32D1
:100C6200E4F533C2B77F01120D1DE5321392B77F4F
:100C720008120D1DD2B77F01120D1DE532A2E71336
:0B0C8200F5320533E533C3940840D879
:010C8D002244
:100003008F2E8D2F8B307F4E120C60AF2E120C6013
:0A001300AF2F120C60AF30020C603A
:100C31008F2B8D2C8B2D7BFF7A0C79B5120CE31247
:100C41000B94401AAB2DAD2CAF2B120003120B9459
:0F0C51007FCC120C607BFF7A0C79C2120CE3226D
:0D0D0400120B947FCC120C607F44020C6037
:100BFE00E4F532E533C313F533C2B77F01120D1D91
:100C0E00D2B77F06120D1D30B7034333807F081213
:100C1E000D1DD2B730B7FD0532E532C3940840D36F
:020C2E00AF33E2
:010C300022A1
:100BCA00120B947FCC120C607FBE120C60120BFECB
:100BDA008F31120BFEEFF52FE531F5307BFF7A0CE2
:100BEA0079CC120CE3AF30AE2F12083B120CE3AEF5
:030BFA002FAF30EA
:010BFD0022D5
:100A2B00E4F52BF52C120BCA8E2D8F2EC3E52D64FE
:100A3B008094804005E4F52C800E752C01C3E49561
:100A4B002EF52EE4952DF52DE52E540FF52BE52ED9
:100A5B00AE2D7804CEA2E713CE13D8F8F52E8E2D3B
:100A6B00AC2BE4120315E4FBFA7980784112026E89
:100A7B00C004C005C006C007AC2DAD2EEC12031090
:100A8B00D003D002D001D00012017A1203498E2D6F
:100A9B008F2EE52C600BC3E4952EFDE4952DFC8089
:090AAB0005AC2DAD2EEC12031078
:010AB400221F
:0C0D1100120CCF7BFF7DEC7F64020C31E4
:090D1D00EFD3940040031F80F79E
:010D260022AA
:10002600BB010689828A83E0225002E722BBFE02D8
:09003600E32289828A83E493220B
:10003F0075F008758200EF2FFFEE33FECD33CDCC78
:10004F0033CCC58233C5829BED9AEC99E5829840FB
:10005F000CF582EE9BFEED9AFDEC99FC0FD5F0D6D8
:10006F00E4CEFBE4CDFAE4CCF9A88222B800C1B902
:10007F000059BA002DEC8BF084CFCECDFCE5F0CB40
:10008F00F97818EF2FFFEE33FEED33FDEC33FCEB79
:10009F0033FB10D703994004EB99FB0FD8E5E4F934
:1000AF00FA227818EF2FFFEE33FEED33FDEC33FC21
:1000BF00C933C910D7059BE99A4007EC9BFCE99A15
:1000CF00F90FD8E0E4C9FAE4CCFB2275F010EF2F5A
:1000DF00FFEE33FEED33FDCC33CCC833C810D7075A
:1000EF009BEC9AE899400AED9BFDEC9AFCE899F895
:0E00FF000FD5F0DAE4CDFBE4CCFAE4C8F92228
:10010D00EB9FF5F0EA9E42F0E99D42F0E89C45F048
:01011D0022BF
:100B3100E4F521F522F523F524F525F526F52AF529
:100B410029F528F527120D11AE21AF227C017DF484
:100B510012011EED4C6021E52445236012120A2B7F
:100B61008F2A8E298D288C27E4F523F524800912FC
:100B71000D04752300752401AF2AAE29AD28AC27D9
:100B8100120349E4FCFD120AB50522E52270B905FC
:030B91002180B50B
:04083B008E328F3337
:10083F00E4F534F535F536D3EF9400EE9400400B24
:10084F0005347C007D0A12011E80ECE534640160E2
:10085F0005E534B40222E53424FFFDE434FFFCE463
:10086F001203108F528E518D508C4F7F007E007D62
:10087F00207C41120724802AE53424FFFDE434FF55
:10088F00FCE41203108F528E518D508C4F7F007EDF
:10089F00007D207C41120724E4FBFA7980783F1217
:1008AF00017A1203498E358F36E4F534D3E5369449
:1008BF0000E53594004038AC35AD36AE32AF33126B
:1008CF00011EEF2430FF74372534F8A607AE32AF80
:1008DF0033AC35AD3612011E8C328D330534AE3547
:1008EF00AF367C007D0A12011E8E358F3680BD7BA0
:0508FF00007A007937CA
:0109040022D0
:0300000002099F53
:0C099F00787FE4F6D8FD7581580209E667
:10011E00BC000BBE0029EF8DF084FFADF022E4CCC5
:10012E00F875F008EF2FFFEE33FEEC33FCEE9DEC8E
:10013E00984005FCEE9DFE0FD5F0E9E4CEFD22EDD4
:10014E00F8F5F0EE8420D21CFEADF075F008EF2F1E
:10015E00FFED33FD4007985006D5F0F222C398FD0F
:05016E000FD5F0EA22AC
:1009AB00020B31E493A3F8E493A34003F68001F226
:1009BB0008DFF48029E493A3F85407240CC8C3334D
:1009CB00C4540F4420C8834004F456800146F6DF1C
:1009DB00E4800B0102040810204080900CF6E47EAA
:1009EB00019360BCA3FF543F30E509541FFEE49311
:1009FB00A360010ECF54C025E060A840B8E493A3D8
:100A0B00FAE493A3F8E493A3C8C582C8CAC583CA02
:100A1B00F0A3C8C582C8CAC583CADFE9DEE780BEBA
:010D030000EF
:100173000203B5E86480F8E933E83360110460F002
:10018300ED33EC337009E8FCE9FDEAFEEBFF2204F2
:1001930060DED3EB9FEA9EE99DE8C2E78CF0C2F7ED
:1001A30095F0400CE8CCF8E9CDF9EACEFAEBCFFBB9
:1001B30012038085D0F05804700320D5B3E804708F
:1001C300075002B2D50203BF92D5EC0460F7E4CC2A
:1001D300C0E0C398F8603B94186008400DD0E0FB82
:1001E300020397E4FBFAC9FC8028E830E406E4C97B
:1001F300FBE4CAFCE830E305E4C9CACBFCE85407D6
:100203006010F8C3E913F9EA13FAEB13FBEC13FCE0
:10021300D8F130F52FC3E49CFCEF9BFFEE9AFEED83
:1002230099FDD0E0FBEF4E4D4C701222DB0302032D
:10023300BCEC2CFCEF33FFEE33FEED33FDED30E78A
:10024300EB020397EF2BFFEE3AFEED39FDD0E0FB17
:1002530050130BBB00030203BFED13FDEE13FEEFC0
:0802630013FFEC13FC020397EA
:10026B000203BFEC5D046005E8590470030203B59B
:10027B00120380580460F6EC4860F2EC7004FDFE4B
:10028B00FF22C860DB2481C85009C3986002500666
:10029B000203BC9850CAF582E9294B4A7005AB8220
:1002AB000203AB75F0007C1A7880C3EF9BEE9AEDDE
:1002BB0099400DC3EF9BFFEE9AFEED99FDE842F0DE
:1002CB00DC23ACF0D0E0FFD0E0FED0E0FDAB822031
:1002DB00E7101BEB60BAEC2CFCEF33FFEE33FEEDBB
:1002EB0033FD020397E803F830E705C0F075F00023
:1002FB00EF2FFFEE33FEED33FD40B830E7C280AA9F
:10030B0075F020800E75F010800575F0087D007E6D
:10031B00007F003392D530D5031205C1EC3340106A
:10032B00EF33FFEE33FEED33FDEC33FCD5F0ED2276
:0E033B00E5F0247EA2D513CC92E7CDCEFF22B2
:10034900EDD2E7CD33EC3392D524814006E4FFFEAC
:10035900FDFC22FCE4CFCECDCC24E0501174FF800B
:10036900EDC3CC13CCCD13CDCE13CECF13CF0470A8
:07037900F030D5DE0205C1E2
:100724008F4E8E4D8D4C8C4BE4FFFE7D807C3FAB19
:100734004EAA4DA94CA84B1204EA7009AF4EAE4D17
:10074400AD4CAC4B22AF4EAE4DAD4CAC4B1203CACC
:10075400FBAF52AE51AD50AC4F1203CAFFBF0108FC
:10076400E4FFFE7D807C3F22EF64046022EB64049E
:10077400601DBB0127E4FFFEFDFCAB52AA51A9504A
:10078400A84F1204EA60084006E4FFFEFDFC227450
:10079400FFF552F551F550F54F020832E4F553F5E3
:1007A40054FFFEFDFCAB4EAA4DA94CA84B1204EA23
:1007B400504BAF52AE51AD50AC4F1203498E538FD4
:1007C40054AC53AD54EC120310C8ECC8C9EDC9CAFB
:1007D400EECACBEFCBAF52AE51AD50AC4F12017657
:1007E400E4FBFAF9F81204EA70A5AF4EAE4DAD4C35
:1007F400AC4B1205638F4E8E4D8D4C8C4BAF4EAE71
:100804004DAD4CAC4B120623AB52AA51A950A84F84
:100814001203E412093D8F528E518D508C4FE554D2
:1008240030E00B1205638F528E518D508C4FAF52B6
:07083400AE51AD50AC4F22A4
:10038000E9D2E7C933E833F892D5EDD2E7CD33ECC3
:0703900033FC5002B2D5223C
:10039700EC30E7100FBF000C0EBE00080DBD0004C7
:1003A7000BEB6014A2D5EB13FCED92E7FD2274FF73
:1003B700FCFDFEFF22E480F8A2D574FF13FC7D80CC
:0303C700E480EFE0
:1003CA00ED33EC33601004700FED547F7005740246
:0A03DA0092E0227404220422E422BF
:1003E400EC4D6011E8497017ED33EC3304600DE413
:1003F400FCFFFEFD22E933E8330470F80203B51272
:10040400038058046009E4CC248150062850090272
:1004140003BF2840030203BCC0E0EB4A7044B98028
:1004240006D0E0FB0203ABEF4E701CBD8008EBFF6F
:10043400EAFEE9FD80EBE98DF0A4FEE5F00204CDCF
:10044400E9CDF9EAFEEBFFEF89F0A4FCE5F0CE89F3
:10045400F0A42EFFE435F0CD89F0A42DFEE435F0B0
:100464008067EF4E7005BD80D780C3EF8BF0A4ACDE
:10047400F0EE8BF0A42CFCE435F0F8EF8AF0A42C19
:10048400E5F038FCE433CB8DF0A42CFCE5F03BF82C
:10049400EE8AF0A42CFCE5F038F8E433CF89F0A41C
:1004A4002CFCE5F038CF3400CE89F0A42FFFE5F022
:1004B4003EFEE433C98DF0A42EFEE5F039CD8AF07A
:1004C400A42FFFE5F03EFEE43DFD33D0E0FB5007F2
:1004D4000BBB000F0203BFEC2CFCEF33FFEE33FE2B
:0604E400ED33FD02039759
:1004EA0074F8CC6480CCC86480C8F58204604FC3B9
:1004FA00EB9FF5F0EA9E42F0E99D42F0E89C45F058
:10050A00603C501DE5825FFFE582D313CB5BCBF4E1
:10051A002B5582FB50280ABA002409B9002008800A
:10052A001DE5825BFBE582D313CF5FCFF4C3132FA4
:10053A005582FF50090EBE00050DBD00010CC3EB2C
:10054A009FF5F0EA9E42F0E99D42F0E89C45F06092
:09055A0007CC4820E701B3EC22B4
:10056300ED33EC33600A047003BD8004ECB2E7FCA6
:010573002265
:1009050033DA929E35B16011377FE5FE392184894E
:100915003AAEC3FF3C1D955B3D6358473E75FDF000
:100925003F3172183F800000C2D50203BF0203B5F4
:10093500BD80FA50F30203BCED33EC330460F17B68
:100945003B7AAA79B8783F1203E4ED33EC3392D5BC
:10095500247B5011A2D570DB500BED44802404504C
:1009650004A2D580CEEFFBEEFAEDF9ECF8120349BF
:10097500EFF582F404FC12031512017AC082900986
:10098500057409120583ED33CC33D0F092D525F0EB
:0A099500A2D57001C313CC13FD229C
:1005EF003E9248DA3ECCCCCD3F2AAAAB4000000069
:1005FF003F8000003F9837F03FB504F33FD744FCEE
:10060F003E3172173EB172173F0515913EDE5BD931
:10061F00D2008002C200EDD2E7F8CD33EC33047084
:10062F000BBD800592D50203BF0203B540FBD31467
:10063F0060F2F5F07C3FEE7A00C39496C8948B403D
:10064F00230AC89469C8941A401A0AC89468C894AF
:10065F001F40110AC8945AC89425400805F07A0023
:10066F00CDC2E7CDC0F08C558D568E578F58EA23EB
:10067F0023C0E024FFF582E43405F5831205DF1271
:10068F00017AECC0E0EDC0E0EEC0E0EFC0E0120593
:10069F00CFA855A956AA57AB58120176D0E0FBD078
:1006AF00E0FAD0E0F9D0E0B2E7F812026E8C558D87
:1006BF00568E578F589005EF7403120574A855A9DD
:1006CF0056AA57AB581203E4D0E0600F240BF58203
:1006DF00E43406F5831205DF12017A8C558D568EA0
:1006EF00578F58D0E0C3947FFDE49400FC120310A1
:1006FF007B187A727931783F1203E4A855A956AA6C
:10070F0057AB5812017A30000B7BD97A5B79DE78C0
:05071F003E1203E4227C
:10057400C0E0EFFBEEFAEDF9ECF81203E4D0E0F59D
:10058400F0EFFBEEFAEDF9ECF81205CFA3A3A3A369
:10059400E8C0E0E9C0E0EAC0E0EBC0E0C0F012036C
:1005A400E41205DFA3A3A3A312017AD0F0D0E0FBE9
:0D05B400D0E0FAD0E0F9D0E0F8D5F0D42284
:0E05C100C3E49FFFE49EFEE49DFDE49CFC224B
:1005CF00E493FC740193FD740293FE740393FF2272
:1005DF00E493F8740193F9740293FA740393FB2272
:00000001FF
