:10004F001200E01200C22092082093057F0A1200CE
:10005F00762092077F0A12008CC2952093E87F0AC0
:07006F0012009EC29480DF25
:100076008F08D294D2951200D2C294C295C3740A44
:060086009508FF0200D204
:10008C008F08D2941200D2C294C3740A9508FF024E
:02009C0000D290
:10009E008F08D2951200D2C295C3740A9508FF023A
:0200AE0000D27E
:0D00E000C290C291C292C293C294C29522F6
:1000C200758901758CFF758A9CD2AFD2A9D28C2218
:03000B0002000EE2
:10000E00C0E0C0F0C083C082C0D075D000C000C0B8
:10001E0001C002C003C004C005C006C007758CFF36
:10002E00758A9C1200B0D007D006D005D004D0033C
:10003E00D002D001D000D0D0D082D083D0F0D0E08A
:01004E00327F
:1000B000309004D2928002C292309103D29322C235
:0200C000932289
:0D00D200EFD3940040077E05DEFE1F80F393
:0100DF0022FE
:030000000200ED0E
:0C00ED00787FE4F6D8FD75810802004F12
:00000001FF
